{
  "transactions": [
    {
      "hash": "0x0758da5ab2fa0966b9879b7e4762c906f246ebac471dee079d5caaee366ad210",
      "transactionType": "CALL",
      "contractName": null,
      "contractAddress": "0x28bf3342dc25ea963b8be2b8ecd09689ac285463",
      "function": "setOracle(address,bool)",
      "arguments": [
        "0x3715B8e78eF1B3AA8bE120ed977deDB5Ca8B99Bc",
        "true"
      ],
      "transaction": {
        "from": "0x3715b8e78ef1b3aa8be120ed977dedb5ca8b99bc",
        "to": "0x28bf3342dc25ea963b8be2b8ecd09689ac285463",
        "gas": "0x11401",
        "value": "0x0",
        "input": "0x653608430000000000000000000000003715b8e78ef1b3aa8be120ed977dedb5ca8b99bc0000000000000000000000000000000000000000000000000000000000000001",
        "nonce": "0x5",
        "chainId": "0x14a34"
      },
      "additionalContracts": [],
      "isFixedGasLimit": false
    }
  ],
  "receipts": [
    {
      "status": "0x1",
      "cumulativeGasUsed": "0x1d59c3",
      "logs": [
        {
          "address": "0x28bf3342dc25ea963b8be2b8ecd09689ac285463",
          "topics": [
            "0x94c9cbe1d9aa7af08484f82ab0179d6db973a391236668c34192d954ff32c06c",
            "0x0000000000000000000000003715b8e78ef1b3aa8be120ed977dedb5ca8b99bc"
          ],
          "data": "0x0000000000000000000000000000000000000000000000000000000000000001",
          "blockHash": "0x186d6feabb61fb0046d385dde5e8526ca96761fc5d7fcef9e2918f181521957b",
          "blockNumber": "0x1f22cb2",
          "blockTimestamp": "0x68f7b844",
          "transactionHash": "0x0758da5ab2fa0966b9879b7e4762c906f246ebac471dee079d5caaee366ad210",
          "transactionIndex": "0x7",
          "logIndex": "0x3a",
          "removed": false
        }
      ],
      "logsBloom": "0x00000000800000000000000000000000000000000000000000000000000000000000000000000000000000000000000000000000000000000000000000000000000000000000000000000000000000000000000000000000000080000000000000000000000000000000000000000000000000000100000000000000000000000000000000000000000010000000000000002000000000008000000000000000000000000000000000000000000000014000000000000000000000000000000000000000000000000000000000000000000000000000040000000000000000000000000000000000000000000000000000000000000000000000000000000000",
      "type": "0x2",
      "transactionHash": "0x0758da5ab2fa0966b9879b7e4762c906f246ebac471dee079d5caaee366ad210",
      "transactionIndex": "0x7",
      "blockHash": "0x186d6feabb61fb0046d385dde5e8526ca96761fc5d7fcef9e2918f181521957b",
      "blockNumber": "0x1f22cb2",
      "gasUsed": "0xbcb9",
      "effectiveGasPrice": "0xf427a",
      "from": "0x3715b8e78ef1b3aa8be120ed977dedb5ca8b99bc",
      "to": "0x28bf3342dc25ea963b8be2b8ecd09689ac285463",
      "contractAddress": null,
      "l1BaseFeeScalar": "0x44d",
      "l1BlobBaseFee": "0x1",
      "l1BlobBaseFeeScalar": "0xa118b",
      "l1Fee": "0x57",
      "l1GasPrice": "0xc",
      "l1GasUsed": "0x640"
    }
  ],
  "libraries": [],
  "pending": [],
  "returns": {},
  "timestamp": 1761065027,
  "chain": 84532,
  "commit": "a49691f"
}